:020000040000FA
:1000000000020010D10000000701000009010000FB
:100010000B0100000D0100000F01000000000000B6
:1000200000000000000000000000000011010000BE
:10003000130100000000000015010000170100007E
:100040001901000019010000190100001901000048
:100050001901000019010000190100001901000038
:100060001901000019010000190100001901000028
:100070001901000019010000190100001901000018
:100080001901000019010000190100001901000008
:1000900019010000190100001901000019010000F8
:1000A00019010000190100001901000019010000E8
:1000B00019010000190100001901000019010000D8
:1000C00019010000190100001901000000000000E2
:1000D000DFF848A04FF0010040F211114FF000028C
:1000E00080EA01035B0828BF521C5B08002BFAD191
:1000F00002F00103002B03BF2025294320F4806078
:10010000EFF30081FEE7FEE7FEE7FEE7FEE7FEE72E
:10011000FEE7FEE7FEE7FEE7FEE70000D100000095
:1001200000000000000000000000000000000000CF
:1001300000000000000000000000000000000000BF
:1001400000000000000000000000000000000000AF
:10015000000000000000000000000000000000009F
:10016000000000000000000000000000000000008F
:10017000000000000000000000000000000000007F
:10018000000000000000000000000000000000006F
:10019000000000000000000000000000000000005F
:1001A000000000000000000000000000000000004F
:1001B000000000000000000000000000000000003F
:1001C000000000000000000000000000000000002F
:1001D000000000000000000000000000000000001F
:1001E000000000000000000000000000000000000F
:1001F00000000000000000000000000000000000FF
:1002000000000000000000000000000000000000EE
:1002100000000000000000000000000000000000DE
:1002200000000000000000000000000000000000CE
:1002300000000000000000000000000000000000BE
:1002400000000000000000000000000000000000AE
:10025000000000000000000000000000000000009E
:10026000000000000000000000000000000000008E
:10027000000000000000000000000000000000007E
:10028000000000000000000000000000000000006E
:10029000000000000000000000000000000000005E
:1002A000000000000000000000000000000000004E
:1002B000000000000000000000000000000000003E
:1002C000000000000000000000000000000000002E
:1002D000000000000000000000000000000000001E
:1002E000000000000000000000000000000000000E
:1002F000000000000000000000000000FFFFFFFF02
:04000005000000D126
:00000001FF
